:020000020000FC
:2000000034084000148C40083A6800080000000000000000000000000000000000000000D2
:2000200004EDFFDE1500C0DF150240D8150380D81504C0D8150500D9150640D9150780D952
:200040001508C0D97A300B00150900DA150A40DA150B80DA150CC0DA150D00DB150E40DB94
:20006000150F80DB1510C0DB151140D904FFFFEB1512C0DB3A3109004C00802826030010B2
:2000800026020020C00F000206070000151240DF17FFBFE804FF3FE9001D00021E020010BD
:2000A00004FFFFEB1512C0DB171140D9171240DF1700C0DF7A700128170240D8170380D89C
:2000C0001704C0D8170500D9170640D9170780D91708C0D9170900DA170A40DA170B80DA62
:2000E000170CC0DA170D00DB170E40DB170F80DB1710C0DB0413C0DE3A0880EF04F9FFDE81
:200100001506C0DF150500DF040500DF3A8801003A31050015FEBFE017FEBFE015FBBFE0FC
:2001200015FD3FE04400800015FCBFE017FBFFE017FCBFE03A7084182614001074108000E3
:200140000427A71017FDFFE0FA9006183A88C5101700C010741080000427A71017FD3FE18A
:20016000FA9008203A88051104018010170080103A8809103AE83E183A8801003A31050033
:2001800015FFBFE017FFBFE00607000017FCBFE03A88851015FCBFE017FDBFE044008010AA
:2001A00015FDBFE006E13F0015FBBFE017FBBFE01EDB3F103A8801003A8801003A8837E061
:2001C0001701C0DF170000DF0402C0DE3A2800F804FBFFDE1504C0DF150300DF040300DF03
:2001E00015FF3FE1C4FFBF0015FDBFE015FE3FE01723A0D0260700101723A0D017FDFFE0E2
:2002000017FEBFE117FF7FE13A8809183AE83E10060200003AA03D003A8805003A8837E0A1
:200220001701C0DF170000DF0402C0DE3A2800F87410C0061400C0DE7410800614F986D6A4
:2002400034108000140FA7103410C0001467E7182603C010150000100401801036FDFF108D
:20026000C0850E02809F0E0206FF3F0004FEFFDE1501C0DF150000DF3A8839D8806F00026A
:200280007410800004308410D4FFFF001500C0103A8805003A8837E01701C0DF170000DF8E
:2002A0000402C0DE3A2800F804F8FFDE1507C0DF150600DF040600DF15FE3FE13A880528A7
:2002C0000DFFBFE00BFFBFE03AD2041085FDBFE00BFFBFE0C5FDBFE084FD3FE184FDFFE07E
:2002E000150100D884008000150080D83A880F20840080013A880B1817FE3FE100E90F0295
:2003000015FCBFE017FCBFE0260600100BFFBFE03A880B1074080001047F0F218080010286
:2003200006FF3F0083FDBFE0CC3F80103A9204103A880710C3FDBFE0CC3F80103AB0841886
:200340000DFDBFE00BFDBFE03A8837E01701C0DF170000DF0402C0DE3A2800F804F9FFDEEF
:200360001506C0DF150500DF040500DF15FD3FE13A8807283A8805300DFEFFE00DFFBFE033
:200380000BFEBFE03AD2041005FCBFE00BFEBFE045FCBFE00BFFBFE03AD2041085FCBFE084
:2003A0000BFFBFE0C5FCBFE004FCBFE03A880F00040180013A880B1017FD3FE1C0C60F0296
:2003C00015FBBFE017FBBFE0260600100BFEBFE03A880B1074080001047F0F2180800102C9
:2003E00006FF3F000BFFBFE03A8837E01701C0DF170000DF0402C0DE3A2800F804FEFFDEAD
:20040000150100DF040100DF15FF3FE174108000043084103700C0104400000117FFBFE002
:200420003A9884203AB0861874108000043084103500C0103A8801003A8837E0170000DF5B
:200440000401C0DE3A2800F804FEFFDE150100DF040100DF15FF3FE17410800004308410E7
:200460003700C0104400000117FFBFE03A9884203A3084003A708618741080000430841003
:200480003500C0103A8801003A8837E0170000DF0401C0DE3A2800F804FCFFDE1503C0DF34
:2004A000150200DF040200DF3A88052005FFBFE005FE3FE045FE3FE0741080000434841083
:2004C000370080108DFEBFE007FFBFE00E060010C4020001C03F000203FFBFE03AC8850072
:2004E00005FFBFE006020000C40200018044000203FFBFE0C4188010CC3F8010F03180106B
:200500001E03001044030001C03F000206020000440300018044000207FFBFE00419400148
:200520003A880910C0AE000205FFBFE007FFBFE0840240013A88091080A6000205FEBFE0BC
:2005400007FFBFE0840240013A880910C0AE000245FEBFE08BFEBFE0CC3F80108DFEBFE015
:2005600003FEBFE03A9304103A8807108BFEBFE03AB084188DFEBFE043FEBFE03A92041089
:200580003A8807108BFEBFE03AB084188DFEBFE08BFEFFE074108000043484103500C0106D
:2005A0003A8801003A8837E01701C0DF170000DF0402C0DE3A2800F804FBFFDE1504C0DF60
:2005C000150300DF040300DF3A88052005FFBFE005FD3FE045FD3FE0741080000434841062
:2005E0003700801015FEBFE007FFBFE00E06001084020001C03F000203FFBFE03AC8850009
:2006000005FFBFE006020000840200018044000203FFBFE0C4188010CC3F8010F031801089
:200620001E03001004030001C03F000206020000040300018044000207FFBFE004194001A7
:200640003A880910C0AE000205FFBFE007FFBFE0840240013A88091080A6000205FDBFE09C
:2006600007FFBFE0840240013A880910C0AE000245FDBFE007FFBFE0840240013A8809109B
:2006800080A6000205FDBFE007FFBFE0840240013A880910C0AE000245FDBFE017FEBFE045
:2006A0000CC0BF1015FEBFE003FDBFE03A9104103A88071017FEBFE03AB0C41015FEBFE072
:2006C00043FDBFE017FEFFE03AB0841815FEBFE017FEFFE074108000043484103500C01046
:2006E0003A8801003A8837E01701C0DF170000DF0402C0DE3A2800F804FCFFDE1503C0DF1F
:20070000150200DF040200DF7408000104870F2140290F0215FEBFE017FEBFE01E050010B3
:2007200074080001048A0F21409001024400800006B000007408000104920F21409001021B
:200740008402400117FE3FE140A60F023A880B0017FE3FE1802A0002CCFFBF103A880B1081
:200760007408000104970F2180800102C403800005FFBFE003FFBFE03A880910C0650102A0
:200780003A8807103A880B18345F100184202A21801001023A8807103A88051834405101F7
:2007A0003A88091080CD00023A8807103A8805183A88091080A000028DFFBFE003FFBFE08E
:2007C0008BFFFFE03A880D183A880B1074080001049D0F218080010203FFBFE0FA9204105A
:2007E0003A8807108BFFBFE03AB08418CCFFBF103A880D10840C400117FE3FE1C0350002FB
:20080000840C400117FE3FE1802A0002CCFFBF103A880B107408000104AE0F21808001024D
:20082000847F9101040C400117FE3FE1C0350002040C400117FE3FE1802A0002CCFFBF10DA
:200840003A880B107408000104B50F218080010284138001040A400117FE3FE1C0350002BF
:20086000040A400117FE3FE1802A0002CCFFBF103A880B107408000104BD0F218080010260
:20088000C41880018400400117FE3FE1C03500028400400117FE3FE1802A0002CCFFBF10CA
:2008A0003A880B107408000104C40F2180800102C40280010401400117FE3FE1C03500022A
:2008C0000401400117FE3FE1802A0002CCFFBF103A880B107408000104CC0F2180800102FA
:2008E000042080018401400117FE3FE1C03500028401400117FE3FE1802A0002CCFFBF1020
:200900003A880B107408000104D30F2180800102040180010409400117FE3FE1C035000273
:200920000409400117FE3FE1802A0002CCFFBF103A880B107408000104DA0F218080010283
:20094000040480018402400117FE3FE1C03500028402400117FE3FE1802A0002CCFFBF10D9
:200960003A880B107408000104E10F21808001020409400117FE3FE1802A0002CCFFBF103C
:200980003A880B107408000104DA0F21808001023A880D008403400117FE3FE1C035000229
:2009A0008403400117FE3FE1802A0002CCFFBF103A880B107408000104E80F21808001027B
:2009C0000405400117FE3FE1802A0002CCFFBF103A880B107408000104F00F2180800102D1
:2009E000040A8A018408400117FE3FE1C03500023A8805003A8837E01701C0DF170000DF18
:200A00000402C0DE3A2800F804FDFFDE150000DC34C013043A880B80150140DC1502C0DFC9
:200A20003A882320C0C100020E0700103A880988C05E01021702C0DF170140DC170000DCB6
:200A40000403C0DE3A2800F83A880B803A880988801001023A880910C05E01023400E00054
:200A60003A88C51006F33F00161B00203A880F00161600283A880D202E1A00290408800045
:200A80004400C00006010000260D00103A884B29C4FFBF103A88C71836FB3F293A8805003F
:200AA000260700183A880500360240313AC84D313AB0C4107AD006187AD00A281EFA3F18F0
:200AC000260100383AC885003A2800F83AC84B015C00C03906E73F003AC809014400C001F6
:200AE00006E33F004400C00006EE3F00161700203A880F003A880520161200282E160029D5
:200B0000040880014400C00006010000260A00303A884B29C4FFBF313A88C71836FB3F29BA
:200B2000260500187AD00618360140113AC845117AD00A281EFB3F18260100383AC8850058
:200B40003A2800F83AC84B0106EC3F003AC809014400C00106E73F004400C00006F13F0045
:200B60003A880D202E15002916140028040880004400C00006020000260E001016050028A9
:200B80003A884B29C4FFBF103A88C71836FA3F29260800183A880500360240313AC84D311E
:200BA0003AB0C4107AD006187AD00A281EFA3F183A2800F83A8805003A2800F84400C000A5
:200BC00006F43F003A8805202E12002916110028040880014400C00006020000260C003042
:200BE000160500283A884B29C4FFBF313A88C71836FA3F29260600187AD00618360140115C
:200C00003AC845117AD00A281EFB3F183A2800F83A2800F84400C00006F73F00FAD50420A9
:200C2000FAD5062834208001C4FFBF31CC3F8010C43FC0013A701031CC3FC0183A704C31DB
:200C4000FAD70820FAD70A282619C011C43FC001260FC0191E0600103A000F401E070018BC
:200C60001E0600303A8805001E0E00403A2800F81E0A0018260B00303A880F00CC3F4029AD
:200C80002607003826080028440080003A2800F826F03F3084FFBF003A2800F8CC3F4029E6
:200CA0002605402126F83F20C4FFBF003A2800F826E63F4006F73F0016FABF181602C010B9
:200CC00036F83F322E0280411EEF3F2006F63F003A8805003A2800F804F5FFDE150100DCF4
:200CE000FAD52020150640DDFAD72A20150380DC34208004150900DF150500DDC4FFBF943C
:200D0000150AC0DF1508C0DD150780DD1504C0DC150240DCCC3F00843A7024913A8829A879
:200D2000CC3F00AF26540080C43F8000262F808034200091FA90242044E03F843A882300A8
:200D40003A882F00FAD50428FAD72C2834200001C4FF3F21CC3F80103A706621CC3F80B102
:200D6000264C0010C43FC0002647C01034200099FA90262044E0BF103A8807003A88A18095
:200D8000C40300013AB0441C3AF06AB54400C081366B8020BA90041034080001046B032104
:200DA0003A880511170080103A680010400F2000000E2000000E2000FC0D2000240F2000BB
:200DC000240F2000100F2000FC0D2000240F2000100F2000240F2000FC0D2000300F2000EB
:200DE000300F2000300F2000401020001E3B0090040240048400C00506D23F003A882B3015
:200E00008400800026268018C400800026B88018440080001EAF80183A8829A83A880700AB
:200E20003A880900CC3F8018FA950610CC3F80A0FA970A1034208000C4FFBF103A70842015
:200E40003AB0C4103AB04411170AC0DF170900DF1708C0DD170780DD170640DD170500DD6C
:200E60001704C0DC170380DC170240DC170100DC040BC0DE3A2800F81E0D00900401400411
:200E80004400C00506AF3F003AC006988400C01806BA3F001E1400984400C00006B73F0098
:200EA0003A8829A8C4FFFF003A88090006DD3F003A880990150040D9C0740102C4FEFF105F
:200EC000841D80103A98E4903AC8A1003A8823003A882F00170040D9069A3F0004034004C8
:200EE000C400C00506973F003A880998150080D9C0740102C4FEFF10841D80103A98E69833
:200F00003AC885003A880700170080D9069B3F00342000013A882900C4FF3F21C4FFFF000C
:200F200006C03F003A8827903A8807B806B43F003A8827903A882BE03A8807B806B03F00FD
:200F40003AD428903AD42C98CCFFBF94CCFFFF9C3A880B983A8809901500C0D9007B010289
:200F60003A880BA03A8809983A882310007B01023A8809A03A880BB03A882710007B0102CF
:200F80003A880BB03A8809903A882910007B01023AD406883A88C5141700C0D93A888518BA
:200FA0002E02C0147400C0003A88E9A03A942610CCFF7F8C3AD404103A88639CBA912688F8
:200FC0003A880515BAD62288BA9108103AC026983AB0629C3AB026892C00829826040010DF
:200FE0007AD004984C0000993A8821383AB02611C41FC0800E21C000CC01809826040010B9
:20100000CC03809804010001260100113A8827992C008298260400103400BE00C4FFBF1025
:201020000420C0803A70A698843F8000169CFF10BA9108983A8829A87AD2082006793F00B0
:201040002C108090260800102C1080981E0600103420800034100099C4FFBF103A8829B0A0
:201060003A70882006AD3F003420800034100091C4FFBF103A70882006A83F0044008000EE
:201080003AC8C710C40680001663FF10040880003AC8C5103A9884983AD8C6983AC00410D6
:2010A0003AB08418CC01C01026040018CC03C01004010001260100193A8805112C00C11011
:2010C000260600183A8829A84400C0003A88090006543F003A88213806C53F00BA9104104D
:2010E0003A8829A83A8807007AD20810064D3F003420800034100099C4FFBF103A8829A8C8
:201100003A70882006853F0004FCFFDEFAD50C28150000DC3420C001FAD52020C4FFFF39C3
:201120003A700639150140DC3A704E39FAD722201503C0DF150280DCCC3F8031C43F000166
:20114000CC3F0084FA900618FAD70428FA900E38266D00315C0080103AC88981264F401406
:201160000E7700011E1E00301E6A0038CC01801826040010CC038018040100012601001179
:201180003A8807192C0081182639001044000084C43F800026758080BA9106184C00808896
:2011A0007AD20A18CC3F0084FA950680CC3F801034200001C4FF3F21FA9704103A70202972
:2011C0003AB0E0803AB084801703C0DF170280DC170140DC170000DC0404C0DE3A2800F882
:2011E000C43F800026E1BF803400C139C406800016740011040880003AC805113A988438E1
:201200003AD80E393AC008103AB00E393AC8C7192C0081182614001034008104C4FFBF9472
:201220003A70A41C3A880990C0740102C4FEBF103A98A490165100143AC805144400C01071
:20124000040880003AC8C5103A9884903AD8E4903A8821003AC006103AB0C69006C33F0084
:2012600026E000203A880720CC0180181EC13F10FAD00A18C43FC0004C0080881E03C08068
:20128000266D002834104029C4FF3F043420C000C4FFFF183A70CA2806C23F000E3C000104
:2012A00026210030C43F400126B07F813400C139C406400116740029040840013AC80B292E
:2012C0003A984A393AD80E393AC008283AB00E393A88C7192C0001192638002044000084D7
:2012E000C43F0001265400813A8823103400BF00C4FFBF104C0000193A7086187AD0061860
:201300003AB0061906993F0026923F38CC3F801006913F00C4FF3F2126BC3F20C43F80005F
:201320001EB2BF8006913F0026903F38C4FF3F2126E73F20C43F40011EDD7F81068B3F00FD
:201340001E22002044000081CC3F0021440040010E4700293AC8E5192C004191262D0028C0
:201360003AC8E5383A88231006AE3F004C008088C4FF3F043A880B00068A3F003400FF003D
:20138000C4FFFF183AC8A1803A70C69006773F001E43002044000081CC3F8021440040011D
:2013A0000E288029C43F4001262340213A88C7197AD006183A882120066C3F003A882310AD
:2013C00006A93F004400C00106903F001E150080262F00183A300801260A0020C43F40011E
:2013E000262B4031C4064001166E0029040840013AC80B293A984A193AD808193AC0062860
:201400003AB0C6203AC8C7383A8821303A882310067F3F001E833F903A8805003A88210015
:20142000069A3F00C43F4001261940313AC809013400C11806EB3F00C4FF3F043A880B00BD
:2014400006583F001E4800802662001826473F383A88C7192C00811826833F103400BF0033
:20146000C4FFBF103A8821283A708618063F3F001E1C00801E260018264C00383A88073842
:201480003A88231006393F004400C00106903F003A8807383A8821303A88231006333F007E
:2014A0001E160080262D00183A300801260A0020C43F400126294031C406400116470029B5
:2014C000040840013AC80B293A984A193AD808193AC006283AB0C6203A88C7193A88213074
:2014E000067C3F001E110018263300383A8807383A882310C43F0004061C3F00C43F4001B1
:20150000261640313AC809013400C11806EA3F0026163F383AC8C9192C00412126503F28D4
:201520003AC8C7383A88231006103F00261B0038FAD006182C10001926050020FAD00E384F
:201540002C1000391E0200203A8807383A882310FA900618C43F000406043F003A880738E7
:201560003A88213006013F0026170018260B0038FAD006182C10001926040020FAD00E38BD
:201580002C1000391E0100203A880738FA9006183A882310C43F000406F43E00C43F0004B3
:2015A00006F23E004400C00006963F003A880B003A88050006353F0034204001C4FF7F2908
:2015C0003A880500062F3F003A880738C43F000406E63E003A88073806E43E004400C00071
:2015E00006BD3F003A88050006283F00FAD50A203420C000C4FFFF18CC3F4029841F800037
:201600003A700619FAD708200E0E40114427800016084011442580003420C0180E0B4011C2
:2016200084DABF283A988418260700203AC885003A2800F83400A000C4FFBF103A888520FC
:201640003A2800F83A8805003A2800F8842580003AC845113AD8841806F33F0004FEFFDEC9
:201660001501C0DF150000DC262C00203A882120C07401028427C0003AC887188425000162
:20168000160FC0203AC8C9203A98088134208000C4FFBF103A708820CC3F8018FA950610FF
:2016A00034208000C4FFBF103A7084203AB0C4101701C0DF170000DC0402C0DE3A2800F810
:2016C000442600011618C0203AC8C9203A98088134007F01C4FF7F29CC0180213A704A21A9
:2016E00026040030CC03002104018001260180213A888B292C00012926050020C427C00090
:201700003AC887183400BF00C4FFBF103A708A28BA9108287AD2082006DF3F003A8807006B
:201720003A88090006DC3F00442E40013AC8CB28440100013AC889203A984A813AD80881EC
:201740003AC020283AB0082406E13F00D4FFBF0036050011C43F8000360F001104088000C8
:201760003A8807000605000034408000C4FFBF102E0C0011040280000406C0003AD8C8207A
:201780007408C00004F8CF183A8809190300C0203AC8C5103A2800F8040680000402C000E2
:2017A00006F63F00040480003A88071006F33F003A880500260700204C00C0207AD00820A3
:2017C000260100183A8845113A884B291EFA3F203A2800F83A2800F804FDFFDE3A88052884
:2017E0001500C0DF150180D91502C0D9170240210401C0D93A880D10009B01021700C0DFCB
:201800000403C0DE3A2800F804FCFFDE1500C0DF150140D9150280D91503C0D974108000E4
:2018200004FAA610170080103A880B20040180D917020011C0C803021700C0DF0404C0DEEF
:201840003A2800F804F6FFDE150700DC3A8821203A880928150840DC1509C0DF3A88232866
:20186000809101024400C010150180D87408800004389010150280D844008000150380D857
:2018800084008000150040DC1506C0D81504C0DE150580D826020080170E80802614001020
:2018A000170240810B0380280C00C8101E06001817190029C4FFF700140088103A70C62029
:2018C0000D0380281519C028040480D93A880980401F06021E090010840280001709C0DF2B
:2018E000170840DC170700DC040AC0DE3A2800F83A88098000D7050206E93F00C4FFBF00D4
:2019000006F63F007410800004FAA6103A880B201700001141840102CC0080202620001035
:2019200007008020262000103A880520060200000700C0102618001844008010CC00C0101E
:201940001EFB3F181700C010F4BFFF01C4BFFF393A30CA007420A0013A88C7190420A031C2
:201960003A7046193A7086191E090018040180101700C0103A88CB193A30C6003A70C628EC
:201980003A70861926F93F1806010000440080100700C0101EFD3F183AC805113A2800F8F2
:2019A0003A88052006E73F003A8805003A2800F804B8FFDE1547C0DF1545C0DD154340DDF3
:2019C000152D00D93A882F283A882B30152EC0D9154600DF154480DD154200DD1541C0DCC4
:2019E000154080DC153F40DC153E00DC008F0602170080103A880910153480D880910102C9
:201A0000153780D8172D80D826020010170E801026FB00100B0380B80C00C8101E06001802
:201A2000171900B9C4FFF700140088103A70C6200D0380B81519C0B80C02C01026C30018FA
:201A40001704C0B826C100188C0680108402C00026C6C0100404C0D874080005041E00D9B4
:201A6000844910A5151EC0D8152000D8151F00D8153300D8153600D8153800D83A881118AD
:201A8000153900D8153A00D8152F00D8152800D9070080A8268B02104409C0003A8823A83B
:201AA0001E02C010061400002603C0104400408C070080881EFC3F103AC8618D260E0080F7
:201AC0001720C0D8171F80D8150040453A88071C440080101520C0D815010044151F80D8A3
:201AE000C401C00016A9801804020042172F40D93A880B2C152F40D90700808826AA00101E
:201B00004400408D4700408C3A882100C4FFBF003A882500052900DC852700D8052B00D8BF
:201B2000152A80D8153100D80416C004440280053A8821903A883940440040AD04F8BF8825
:201B400036328398BA9004103408C00004D7C6183A88C510170080103A68001004272000B4
:201B60000C2820000C282000242720000C2820000C2820000C2820000C2820000C282000AE
:201B80000C2820000C1E2000142620000C282000D01C2000301E20000C282000801E20006D
:201BA0008C1E20008C1E20008C1E20008C1E20008C1E20008C1E20008C1E20008C1E2000D5
:201BC0008C1E20000C2820000C2820000C2820000C2820000C2820000C2820000C282000EF
:201BE0000C2820000C2820000C282000C81E2000901F20000C282000901F20000C2820009D
:201C00000C2820000C2820000C2820003C2020000C2820000C282000482020000C282000C8
:201C20000C2820000C2820000C2820000C282000CC2420000C2820000C282000382520001F
:201C40000C2820000C2820000C2820000C2820000C2820000C2820000C2820000C282000E4
:201C60000C2820000C282000B027200030272000901F2000901F2000901F2000502720004A
:201C8000302720000C2820000C2820005C2720000C28200070272000F4252000DC1C200026
:201CA0002C2620000C282000382620000C2820009C2620000C2820000C282000BC26200000
:201CC0001731C0D8152E80D83AC8C7001531C0D814010084070040AC06973F00040C8000EA
:201CE000052780D8041E8000452780D8172A00D9172E80D8852700D83A8811E00401C01037
:201D00001700C0143A882D009400808016CA0220C4DFBF003A70A480152EC0D894008094A0
:201D20001EB402987408400104425029153940D9041E4004172A80D83A88390026FA011029
:201D40003A8827003A882D0006190200172D00D93A880BB840D603021EDC05100B0380B878
:201D60008402C0008C0680101E3AFF108F0380B816383F10172EC0D9172D00D93A880DA8BB
:201D80003A880BB880CA030206110000172D00D9041E80D93A880BB8001909021E080010E1
:201DA000040400DA06513F00172080D826040010172D00D9041E80D93A880BB800190902A1
:201DC0000B0380B80C1080101EC00510172F80D81747C0DF174600DF1745C0DD174480DD96
:201DE000174340DD174200DD1741C0DC174080DC173F40DC173E00DC0448C0DE3A2800F8A8
:201E0000172D00D900D7050206023F00172E00D9172E40D91700002104018028153100D900
:201E200016A73F20152E80D8070040AC06423F00070040AC840A00014400C0A82658078935
:201E400004F4BF8C36AE86B43A8809003A88231884024001007B01020700C0883A88891466
:201E60004400408D04F4BF1C3A8823A82EF8BFB43A88231816F60520152A00D9062F3F009E
:201E800014200084070040AC062B3F0004F4BF8C153100D83A8809003A8823A884024001A7
:201EA000007B01020700C0883A888990440040AD04F4BF1C3A8823A82EF8BFB43A88231853
:201EC000153100D9061D3F003A882580032900DC3A8811E0CC3F00841E53078014048094AC
:201EE0000C08809026A30310172E00D9170180201700C02404020021152E00D93A882D10CF
:201F000016730410172A00D9832700DF16E40320C4DFFF003AB0849D3A70E49026800110E2
:201F200026AB03B0152940DC041E00DC3A8823B03A882D403A8809983A880B888402800142
:201F40003A880F00406D0B02040C8010C4FF3F843A8809983A880B8805008080840280010C
:201F60003A880F00800D0B023A8827103AB0C4103A8823181EEF3F101728C0D8172940DCB3
:201F80003A8811B03AC8071C152BC0D8065F00003A882580032900DC3A8811E0CC3F0084AB
:201FA0001E1E07800C02809026AF0410172E00D9172E40D9172E80D8170000211701402985
:201FC00004028010153600D9153840D9152E80D8173600D9173840D9153D00DA4400000444
:201FE00040DB0802173D00DA1E440414173600D9173840D93A880D003A880F0080070D0250
:20200000173D00DA16E30510832700DFC41180000E58451474080004043A1084C400C00011
:20202000C4DFBF001529C0D83A70A490152BC0D8152A00D8153200D8063A000014020084A2
:20204000070040AC06BC3E003A882580032900DC3A8811E0CC3F00841E000780140480940B
:202060000C08809026FA0210172E00D9172A40D9852700D8040280201700C02417018025B0
:2020800016B10428C4DF3F013AB0869D152E80D83A7024911EFB0218172AC0D83A8839005C
:2020A00026E505183A8827003A882D00041E00DCFAD006987A9708B0FAD02CB0CC01C09C22
:2020C000040C8098C4FF3F843AB0E620050080803AB0869D1EF63F184C00C09026410118C9
:2020E000CC3F80101C20801004E0BF10040CC000263CC110C5FFFF801728C0D8C4FFBF80A7
:202100003A8821103AC88718152BC0D8172B80D8172A00D90E0100113A880520152980D802
:20212000153200D8CC3F00E71C2000E704E03FE7260300E01729C0D84400C0181529C0D88E
:202140008C00C090152CC0D8260300181729C0D88400C0181529C0D80C21C0901530C0D825
:202160001EC50118173100D91729C0D83AC8E7200EC1C104040440021720C0D8171F80D826
:202180000E2FC54C74084001844D5029153B40DC153540D93A8823983A882D483A882790EE
:2021A000C40100073A882580172D00DC0603000004FC7F8C040200420E1340B474080001DE
:2021C0000404C01844008010844D102115000041150180451520C0D8151F80D80EF4BFE01E
:2021E000041E80D93A880BB83A880980001909021EF33E1004FC7F8C1720C0D8171F80D8A9
:20220000040400DA16ED7FB43A8821903A8825983A882788173B40DC173540D93A88C7984F
:2022200044008010150040411501C0441520C0D8151F80D8C401000116C58220872700DFF1
:2022400004020042260C00E0171F80D8842700D94400C01844008010150000414400000187
:20226000150100411520C0D8151F80D8C4010001165E822004020042172C80D8260C0010AD
:20228000171F80D8042700D98400C018440080101500004184000001150100411520C0D87D
:2022A000151F80D8C40100011658822004020042173000D90420800026BB8120172A40D9D4
:2022C000172B80D83AC8AD280E31800504040007171F80D80E3684E574084001844950297C
:2022E000152A40DC152C40D93A8823B0C401C0043A882DA83A882B903A882580172D00DC70
:202300000603000004FC7F8C040200420E1140E40404C018440080101500004515010047B3
:202320001520C0D8151F80D80EF6BF98041E80D93A880BB83A880980001909021EA03E106E
:2023400004FC7F8C1720C0D8171F80D8040400DA16EF7FE43A8821903A8825A83A882BB02C
:202360003A882D88172A40DC172C00D93A88871D4400801015000041150180451520C0D835
:20238000151F80D8C401000116108220040200420C4080901E3A0110172B40D9171F80D82D
:2023A000150000443A88471944008010150140411520C0D8151F80D8C401000116F581206C
:2023C000040200420C01809426320090173140D9172980D83AC8A1280E2E0004040440045C
:2023E000171F80D80EC4048C74084001844D5029153540D9C4018004172DC0DC0603000051
:2024000004FC3F84040200420E13008C740800010404C01844008010844D1021150000417B
:20242000150140441520C0D8151F80D80EF4BF90041E80D93A880BB83A88099800190902D1
:202440001E5F3E1004FC3F841720C0D8171F80D8040400DA16ED3F8C173540D93A88071C97
:202460004400801015004041150100441520C0D8151F80D8C40100010E068020172D00D9A8
:20248000041E80D93A880BB8001909021E4C3E101720C0D8173180D8172900D90E010011B8
:2024A0003A880520172F40D93A888B28152F40D91EC00118070080A8151F00D8040400DAF0
:2024C0001E753D103A8823A8068B3D003A882580032900DC3A8811E0CC3F00841EE5058088
:2024E000140480940C088090262B0210172E00D9172A40D9852700D80402C0201700C0244C
:2025000017018025162E0428C4DF3F013AB0849D152EC0D83A7024913A8839001E803E107F
:20252000172A00D91EE00220152A00D8152B00D8041E00DC06F53E003A882580032900DC8C
:202540003A8811E0CC3F00841EBA058074080001043D1021153900D90C088090266100100B
:20256000172E40D91700C02C1701802D04024029152E40D94C00809026AC01103AB0849D20
:2025800026850310172AC0D8040C8000052780D8452740DC852700D8940080901679041835
:2025A000C4DFBF003A70A490940080943A883900173900D9041E00DCCC0380983A9706B0A3
:2025C0003A8885203AD12698030080103AD12CB0C4FF3F843AB0E61C050080803AB0849DCF
:2025E0001EF53F101728C0D83AC8071C152BC0D806C63E003A882580032900DC3A8811E079
:20260000CC3F008426963E80032BC0D88527C0D806933E004400C0000529C0D8C40AC00078
:20262000052BC0D8070040AC06433D0014080084070040AC06403D00172E80D83A8825803F
:20264000852700D8170000143A8811E00401C014262D0480172AC0D816E403183A880D1893
:202660003A880B003A880980153D00DF802E0702173D00DA266804103AC80514152B80D8D7
:2026800016E00310832700DF152980D8152EC0DC152A00D8153200D806A23E003A882580B0
:2026A000032900DC3A8811E0CC3F0084268D3F80032BC0D88527C0D8068A3F003A8825801E
:2026C000032900DC3A8811E0CC3F00841E6605807408000104421021153900D90C08809068
:2026E0001E9F3F100C04809026EB0210172E80D83A882D001700C01404018010152E80D8E4
:20270000069C3F00072B80D81EE102104400C0000529C0D80408C000052BC0D8070040ACEC
:2027200006053D0054000084070040AC06023D003A882580032900DC3A8811E0CC3F008490
:2027400026E73D80032BC0D88527C0D806E43D0014100084070040AC06F73C00070040ACB7
:20276000041B8000268F83881404008406F23C003A882580032900DC3A8811E0CC3F008479
:202780001E3F05800C08809026D20210172E00D9172F40D917008020FAD7072804010021CF
:2027A000152E00D9150040111501C01006B83C00172EC0D8172E00D93A88258017008018A6
:2027C000040100214400C0003A8811E01529C0D8852700D8051480D8152E00D9152BC0D85D
:2027E000152A00D8153200D8041400DC3A88390006533E0074080001044210213A8839002E
:20280000153900D9041E400406693F003A882580032900DC3A8811E0CC3F00841E08058021
:2028200026613D884400C0001529C0D8051440DC852700D806E93F0074084001044250290F
:20284000153940D9152EC0D83A882510041E40043AB0849D1EFC00103A88390084008000A5
:20286000CC3F80104400C000260FC2108400C0002633FD10060B3E001720C0D806713E0035
:20288000441980000E7E4014173600D9173840D93A880D003A880F00153CC0D8153D00DA38
:2028A00040F10C02173CC0D8173D00DA1EF70010171F80D874080001044910214400C018F6
:2028C000440080101500004144000001150100411520C0D8151F80D8C401000116B88220A3
:2028E00004020042172680D8173340D9160240114C00809026B33E10173780D8173400D9E2
:20290000173740D93A888718171F80D81500004115014041440080101520C0D8151F80D847
:20292000C40100011629832004020042173380D8C4FF3F140EA33E0404044004171F80D822
:202940000E88008C7408400184495029152C40D9C4018005172DC0DC06030000040200427D
:2029600004FC3F840E82008C0404C0184400801015000045150140441520C0D8151F80D877
:202980000EF6BFB0041E80D93A880BB83A880998001909021E0A3D101720C0D8171F80D86B
:2029A000040400DA06EE3F00173140D9172980D83AC8AD280E41BE0504040007171F80D883
:2029C0000E8F83E57408400184495029153040DC152C40D93A8823B0C401C0043A882DA87F
:2029E0003A882B903A882580172D00DC0603000004FC7F8C040200420E1140E40404C01854
:202A00004400801015000045150100471520C0D8151F80D80EF6BF98041E80D93A880BB877
:202A20003A880980001909021EE53C1004FC7F8C1720C0D8171F80D8040400DA16EF7FE426
:202A40003A8821903A8825A83A882BB03A882D88173040DC172C00D93A88871D44008010A7
:202A600015000041150180451520C0D8151F80D8C4010001168E812004020042060F3E0026
:202A8000173340D9440080004400C0180E534111171F40DC44008000150180404400408C44
:202AA000150000441520C0D8151F40DCC4018000166B411404020042173780D8173400D973
:202AC0004400408C3A88C71015018040150000411520C0D8151F40DCC401800016694114EB
:202AE00004028045173600D9173840D93A880D003A880F00153CC0D840F10C02173CC0D8CA
:202B000026BC0010173340D9440000844400408CC4FFBF283A888718150180B0150000B46E
:202B20001520C0D8151F40DCC401800016434114040280B5173A00D9C42200DF4400408C4B
:202B40003A88C720150000B7150100B11520C0D8151F40DCC4018000160E4014040200B2A7
:202B600006183E007408000184491021152C00D9172C00D93A88071C1501004415000041B3
:202B8000440080101520C0D8151F80D8C40100010E0BBE20172D00D9041E80D93A880BB82E
:202BA000001909021E863C101720C0D8040400DA06043E00172D00D9041E80D93A880BB8EB
:202BC00000190902263B3E10067D3C00172D00D9041E80D93A880BB8001909021E783C1040
:202BE0001720C0D8040400DA06E93D00172D00D9041E80D93A880BB8001909021E703C10DD
:202C00001720C0D8040400DA069B3D00172D00D9041E80D93A880BB8001909021E683C1012
:202C20001720C0D8040400DA06A13D00172A40D9852700D816063F28C4DFFF003AB0849DF1
:202C40003A70E490263B3C103A88390006583E000C04809026B30110172EC0D8172A00D911
:202C6000852700D8040180181700C01C3A882D0016B50120C4DFFF00152E80D83A70E4900A
:202C800026053D983A88390006083D00172640DC0ED34104173240DC173380D80E01401405
:202CA0003A8823100E0A4004171F80D83A88471C1500004444008010150140441520C0D87C
:202CC000151F80D8C4010001166582200402004216610288173200D93AC863240E7B4004C4
:202CE00004048005171F80D80E9D41B47408000184491021152C00D9C4010007172DC0DCD8
:202D0000060300000402004204FC7F8C0E9741B40404C018440080101500004515018045D4
:202D20001520C0D8151F80D80EF6BFE0041E80D93A880BB83A880998001909021E203C1086
:202D40001720C0D8171F80D8040400DA06EE3F00172D00D9041E80D93A880BB800190902C0
:202D60001E173C101720C0D8872700DF040400DA06343D000C04809026610110172E40D907
:202D80001700C02C04014029152E40D9FAD72D983A8805B0065A3C000C0480902635001032
:202DA000172EC0D8172A00D9852700D8040180181700C01C3A882D0016370020C4DFFF000A
:202DC000152E80D83A70E4903A88390026D43D98440280003653FC141728C0D8C41D00DC7D
:202DE000040CC09C3AC8071CC51DC0DC152BC0D806C63C00173380D8C4FF3F140E4D3F048E
:202E0000040400070E8100E47408400184495029152C40D9C401C001172DC0DC0603000064
:202E2000040280B504FC3F840E7B00E40404C0184400408C150000B5150100B71520C0D8D3
:202E4000151F40DC0EF67F3C041E80D93A880BB83A880998153CC0D900190902173CC0D906
:202E60001ED73B101720C0D8171F40DC040480DD06EC3F000C108090852700D8260E011066
:202E8000172E40D9172AC0D83A882D00040180280B00C02C0EC93F18152E80D83A883900A4
:202EA0003AB0849D1E1E3C1044008000066C3E00172D00D9041E80D93A880BB800190902CA
:202EC0001EBF3B101720C0D8040400DA173200D9172680D8173340D93A8823811602401130
:202EE0004C000091260D0020173700D9173440D93A880719171F00D915004041173740D929
:202F0000440000211520C0D815014041151F00D9C401400116E8012904020042173300D942
:202F20003A8821813AC885203AC861840E0100143A8821100E0A0004171F00D93A88071C79
:202F40001500404444000021150100441520C0D8151F00D9C401400116FB012904020042B6
:202F600016F701803AC821140E163D0404044004171F80D80EFB3E8C740840018449502977
:202F8000152C40D9C4018005172DC0DC060300000402004204FC3F840EF53E8C0404C018EC
:202FA0004400801015000045150140441520C0D8151F80D80EF6BFB0041E80D93A880BB87D
:202FC0003A880998001909021E7D3B101720C0D8171F80D8040400DA06EE3F003A70889050
:202FE0001EAB3E20171F40DC15018040150000444400408C1520C0D8151F40DCC4018000B7
:20300000160E40140402804506CA3E007408000184491021152C00D9172C80D83A88071C4A
:203020004400408C150080B0150100B41520C0D8151F40DCC40180000EBD7E14172D00D995
:20304000041E80D93A880BB8001909021E5C3B101720C0D8171F40DC040480DD06B53E0008
:20306000172D00D9041E80D93A880BB8001909021E533B101720C0D8171F40DC040400DA50
:20308000068D3E00172D00D9041E80D93A880BB8001909021E4A3B101720C0D8171F40DC4A
:2030A000040480DD068F3E003A882700064A3F00172D00D9041E80D93A880BB8001909021F
:2030C0001E3F3B101720C0D8040400DA067B3C00172A40D93AC8E704440B00073AC00498A7
:2030E0003AC8AD05852700DF3AC8ADB0167B0128C4DFBF003A70A49006893B00173600D948
:20310000173840D9153D00DA40DB0802173D00DA26F00010172A00D9C4F7BF05C4FFBF0087
:203120003A70AC8D26008220C411800026F781B0173800D91440C090152CC0D8161502204F
:203140001738C0DC052900D88419800026F9818884118000261C82884411800026EF81B0BD
:20316000172AC0D8042180D8150380D8173640D9042580D8172D00D9150280D8042680D894
:203180001500C0D8150180D88400C0013A880D98153CC0D8153D00DA000E04023A8821104C
:2031A000C4198000173CC0D8173D00DA26718188C4118000269182883A88F980173600D982
:2031C0003A880D003A880F003A880B98153D00DA40F10C02173D00DA268D0110172180D8FD
:2031E0002E060017040C00014400C0101521C0D805000011172180D836FB3F173AC8051449
:20320000153380D8C4118000267681B0441980000E8042141726C0D8841980001532C0D85A
:2032200026FE81881732C0D8173300D916DD01194C0080941E2B02903A8805181683021883
:203240001732C0D8C4194004152BC0D8072900DF1E5301E0832700DF152980D8172C80DC75
:20326000152A00D806AF3B00172EC0D8172E00D9172E40D91700C018170100210402402957
:203280001536C0D8153800D9152E40D906503B00070040AC06283A000C10809026A80010D3
:2032A000172EC0D83A882D000B00C01C0401C018152EC0D806AF3C00172E00D9172A40D93A
:2032C0003A882D00040180201700C0240EBB3E2806F13E000C0480901E9200100C108094EB
:2032E00026390190172E40D9172FC0D81700802804014029152E40D90D00C01006E4390019
:203300000C10809026800010172E80D80F00C01404018010152E80D8FAD72D983A8805B00E
:2033200006F73A000C108090852700D81E8A0010172E00D9172A40D93A882D0004018020E2
:203340001700C0240E4B3E283AB0869D152E80D81E4C3E183A8839003A88050006403D0006
:203360007408400184495029152C40D9172C40D93A88471C4400801015004041150140446B
:203380001520C0D8151F80D8C401000116C8BE200402004206CD3E00172A00D9852700D85B
:2033A000162D3D20C4DFBF003A70A49006613A007408000184491021152C00D906EA3B00CC
:2033C000172D00D9041E80D93A880BB8001909021E7B3A101720C0D8040400DA06413D0094
:2033E000171F80D874084001440000014400C018440080100449502915010041150040419A
:203400001520C0D8151F80D8C4010001165C8020040200421E040088173380D81E020010B7
:203420004C00809026E73B10173700D9171F80D8173440D93A88C7204400801015010041EB
:20344000150040411520C0D8151F80D8C401000116218120040200423AC863040E73400469
:20346000040480050E8640B47408400184495029152C40D9C4010007172DC0DC0603000025
:203480000402004204FC7F8C0E8040B40404C0184400801015000045150180451520C0D8A1
:2034A000151F80D80EF6BFE0041E80D93A880BB83A880998001909021E413A101720C0D8DE
:2034C000171F80D8040400DA06EE3F00C4FFBF00063F3A00C411800016B840147408000451
:2034E000043B1084C400C000C4DFBF001529C0D83A70A490832700DF152BC0D8152A00D8E7
:20350000153200D806073B00172EC0D81700C01C0401C018152EC0D8FAD72D983A8805B0AF
:2035200006773A00172EC0D8172F00D9170080180401C018152EC0D81500001106543900B8
:20354000172E00D93A882D001700C02404010021152E00D906073C00172E40D9172AC0D8A1
:203560003A882D00040180280B00C02C0EC13D1806753F00740800040439108406A73A00A2
:20358000172D00D9041E80D93A880BB8001909021E0B3A10172640DC1720C0D8040400DA6D
:2035A000069C3F00430040AC14080084440040ADCC3F408C1C20408C04E07F8C065E3900BF
:2035C000152EC0D83A88390006353E00172D00D9041E80D93A880BB8001909021EF83910FC
:2035E0001720C0D8040400DA06D03C003A880980153D00DF80910102152B80D8173D00DAB2
:203600000E203C103A880500061E3C00172D00D9041E80D93A880BB8001909021EE8391079
:203620001720C0D8171F80D8040400DA173340D944008010150000443A88C728065B3B006E
:2036400074080001844D1021153500D906F23A00C4FF3F0106083A003A882300069D3D0086
:20366000172D00D9041E80D93A880BB8001909021ED339101720C0D8040400DA06943D0047
:203680007408000184491021152C00D9172C00D93A88471C44008010150000411501404490
:2036A0001520C0D8151F80D8C401000116D7BF200402004206DD3F00172D00D9041E80D91D
:2036C0003A880BB8001909021EBD3910172680D81720C0D8040400DA06103E0044008000BF
:2036E000CC3F80104400C000260DFA108400C00026AFFB10066D3A0074080001844D10219E
:20370000153500D906543B00172A80D88401C0002E0180183A880518152B80D816EF0010C0
:2037200074080004152980D8152EC0DC152A00D8153200D8044710843A88390006803A00C4
:203740003A88210006073E00172D00D9041E80D93A880BB8001909021E993910172680D865
:20376000173340D91720C0D8040400DA3AC8852806FB3D004C0080901E8F3E10172180D861
:20378000069E3E003A8825103A8839008400800006D33F00440B0007852700DF061B3A00FD
:2037A000440BC0008527C0D8152980D8172C80DC152A00D8440B0007065E3A0074080004F6
:2037C000043C108406473F00172E00D9172F40D91700802004010021152E00D915004011AD
:2037E00006AB3800172680DD44FFBF00161C80B0172A40D9161A802D153280DD06893E003A
:203800007408000184491021152C00D906913C003A8805E006793E00172A00D9832700DF39
:20382000152EC0DC152900D9152B00D9152A00D8153200D8063B3A004C0080903A88390071
:2038400026040010040C8000C41D00DCC51D80D806643B00152B00D8041E00DC062B3A0081
:2038600084FF7F8CC4FFBFB5152680DDC52240DC16BF00B0C40A8000052380D844028000CF
:2038800016708015040C8000040C80B5452380D8852380DDC42380D8C42200DF1733C0D88D
:2038A0003AC83917173300D93A88C7E0153A00DF152BC0D8440080000EB30011172BC0D8B4
:2038C0004400C018152BC0D83A88051816AC0018153200D8065D3E00172D00D9041E80D9E3
:2038E0003A880BB8001909021E353910172640DC1720C0D8171F80D8040400DA06D63E00D1
:203900003A882B18152A00D8068C3800172A80D81E073E10152A00DC06053E00172A00D937
:203920004400C020060F3E0084014001152A40D906FF3D00042180D8150380D8042580D842
:20394000150280D8042680D8150180D8172A80D8173640D9172D00D9150080D8C400C001FA
:203960003A880D98153D00DA000E0402172AC0D8173D00DA3A8821103A88F9100700008153
:20398000040C8000265E80201726C0D83A88F9E0060A3E00440BC0003C00E0240529C0D8A0
:2039A00006E93D001732C0D80E7AC00044008000173300D93A880511152B80D8164E0010E7
:2039C000C419400406213E00172A00D9042180D8150380D8150000D9042580D8173640D985
:2039E000172D00D9150280D8042680D8150180D8C400C0013A880D98153D00DA000E04021F
:203A0000172AC0D8173D00DA3A882110841180003A88F98026D9BF8806E83D00172A00D9D1
:203A20000E4DC0001E4400204C0080941E4200903A880518166F00181732C0D8152BC0D864
:203A400006023E00C42200DF152A00DC3A8827403A8821E03A8809B084024001C0AE0002A2
:203A6000040C8010C4FF3F843A8809B0840240010500808080A600023A882D1044028000EC
:203A800016F4BF153A881198040C80B03A882780C4FF7F99C5FFBF98172A00DC2E6D002F57
:203AA0008423C0D93AC8CF3C442300D93A88CFE1060100000300802805008020440000214B
:203AC000440040291EFB3F39042380D83AC8C5144423C0D83A88851806703F003A88050074
:203AE000060F3F001732C0D84400C018152BC0D83A8805180EB23F183A88050006B03F00EB
:203B0000173600D93A880D003A880F003A880B98153CC0D8153D00DA40F10C02173CC0D83B
:203B2000173D00DA26983F10440080003AC8C7101526C0D806953F00172A00D91732C0D805
:203B4000440080203A888518152B80D80EBF3D103A88050006BD3D001E2000204C008094EB
:203B60001E1E009044008000152B80D806B73D00440B80003AC8AD05052380D8063F3F009C
:203B80003A88050006523F003A70A490264E3F90064A3F00840080003AC8C51006843F0073
:203BA000172E40D9172E00D9430040AC1700402904018020152E80D8152A40D93A882B183D
:203BC0000E7B3E28CC3F408CC4FF7F011C20408C152A40D904E07F8C06D73700172AC0D8A0
:203BE0008400C018152BC0D83A8805180E973D1806D73F003A880500068F3F004C008090A5
:203C00001E823F10172180D83AC80514153380D826F47EB4172680DD06123F00032BC0D867
:203C20008527C0D806DF3800032BC0D88527C0D806AA3800032BC0D88527C0D806433A00A4
:203C4000032BC0D88527C0D806F53A003A880500067B3D00442380D806103F00032BC0D8C6
:203C60008527C0D806FD3800032BC0D88527C0D806973A00032BC0D88527C0D806183A0082
:203C8000032BC0D88527C0D806BE3A007410800004FAA6103A880F303A880D283A880B207F
:203CA00017000011019B01020B0380281719C02A8B03802A1707402A1709002A04E2FEDEA1
:203CC0000400C100151A01DC4CFFBF103A8821283A88CBD8151C81DC151B41DC151DC1DFDC
:203CE0003A8825200D0381D81519C1DA8D0381DA150741DA150901DA1500C1DE1504C1DE04
:203D00001502C1D81505C1D8150601D8009B01023A88231016040010040041D93A88099016
:203D2000409805021E0D00100B0381D80C108010260300100B038080141080100D0380804B
:203D40003A880588171DC1DF171C81DC171B41DC171A01DC041EC1DE3A2800F8C4FF7F04F2
:203D600006F13F007410800004FDFFDE04FAA610150140DC3A88232017000011150000DC27
:203D80001502C0DF3A88212826020020170E8020263100100B0380800C02C0103A88091027
:203DA000260F00181704C080261500184C0000111E1C00208C0080101E29001017058080C2
:203DC00015028080261C00183A8805001702C0DF170140DC170000DC0403C0DE3A2800F8CD
:203DE0000C048020262E00100C0180201E1E00101704C080140280200D0380801EEB3F1835
:203E00000CA000110480400126E87F213A880B803A880988009206020B0380801704C080CF
:203E200006E23F0017058080150200803AC88500150680801EE43F180B03C0803A88050098
:203E40000C20001926E13F201410C0180D03C080C4FFBF0006DD3F0000D7050206CD3F00D7
:203E60003A88050006D63F00170C40812606002804108080260380283A88098840EE0502BB
:203E80000B030081150C00801704C080C4F6BF003A700811150100801500C08006D53F0056
:203EA0004402800015008088141080200D038080C4FFBF0006C53F0004F2FFDE150BC0DD2F
:203EC000170480201704C02D150DC0DF150C00DF150A80DD150940DD150800DD1507C0DCF5
:203EE000150680DC150540DC150400DC167AC015C4FFFFBD3A88E9BD0405C0283A8829A553
:203F00003A88391D0405C024150240D93A88299D170040E1150000D9170000A14400402959
:203F20001501C0D8150300DD00B600023A88251026300010170140DC3A8829983A882D0023
:203F40003A8821001700408D3A880B900401408CCCFF3FA9007B01023AD408A83A880B9020
:203F60003A88AD15007B0102170000A13AD40CB0CCFFFFB0CCFF7F213A88212C3AC8C78080
:203F80003AD408203A8885113AD42118CCFF7F113AC849213A8821243A940880CCFFFF1846
:203FA0003AD42C103AB0C820150000A13AD42180040100A52EE37FE41703C0D81700801801
:203FC0001E0C001004FFBF182E08809817FFFF1826030018060500001700C0101E030018E6
:203FE00004FFBF10C4FFFFBD36FBBF981700C0D81504C01D170240D9170000D9C011080246
:2040000016280010170140DC440080943A880D983A880700170000311700408904018031B8
:20402000CCFFBF203A88C710CCFFBF283AC885183AD40A283AD408203AD40710CCFFBF10B7
:204040003AC849213A88C9203A940A200401408C3AD407203AB0842815FFBF302EED7FE434
:204060003A88C5BD3A8885103A888798170080181E0C001004FFBF182E08809817FFFF1886
:2040800026030018060500001700C0101E03001804FFBF10C4FFFFBD36FBBF981700C0D82C
:2040A0001504C01D3A880590170DC0DF170C00DF170BC0DD170A80DD170940DD170800DD78
:2040C0001707C0DC170680DC170540DC170400DC040EC0DE3A2800F83A88050006F23F0076
:2040E0001710802004DEFFDE152000DF151BC0DC151A80DC151940DC151800DC1521C0DFA7
:20410000151FC0DD151E80DD151D40DD151C00DD1503C0D93A8839203A8823303A882528F1
:20412000172400DC3A88273026080010171180214400C0003A880B103A988619150180114F
:204140001502C01000840702151000E0162E0088150000802CFC9F8834FCDF00261CC01015
:204160003A880D003A880F003A8809903A880B9840F10C021E2B00101723C0D944008000B0
:2041800015008038172580D8269E01101725C0D8740880004449901015008018C4FFBF10AD
:2041A0001721C0DF172000DF171FC0DD171E80DD171D40DD171C00DD171BC0DC171A80DCF1
:2041C000171940DC171800DC0422C0DE3A2800F81723C0D8C4C389001500801826770190AD
:2041E0007408800004559010172500D926EC3F20C700C0101E780118C400C010172580D9D5
:204200001500C03006E63F003400E004C4FFFF9C440080003A70E68C150080803A88239886
:2042200006CC3F00040280D8150080D80401C0D93A880B903A880D983A8809E03AD52088DE
:20424000804E0802150980D81E650180170280DD170100DC040880003A8821B4840CC180AE
:204260000ED1C21004108000840401813AC8C7103AD808913A98E2883AB0482400430E0286
:2042800034847F01440080013A8809103A884B19C4FF3F84151180D93A880D0034FECF014A
:2042A000809D0D02F4DB9801F4F4CF0144D89031C4E9E1393A8809103A880B18C0160D0269
:2042C00074D8A201F4F1CF01C42CB231048AE2393A880B183A88091080C90B023A8809805D
:2042E0003A8829103A88231840350E02F4279401F4F4CF01C47E9E31C404D1393A8809101B
:204300003A880B18C0160D023A880D103A880F183A8809A03A880B8880C90B023A8809101A
:204320003A880B183A8829103A882318402D0E023A880D003A880F003A8809A03A880B88C3
:20434000150580D880070D02168702101705C0D8840580003675C210FA9004187408C0008A
:204360000471D0183A88851817000011170140113A880D903A880F98C0F90C020E8D820044
:20438000170500D9150E00D8C4FF3F21150500D93AC82DB4C4FFBFB5166F02B0150800D8D1
:2043A0001705C0D9166402383A88EDB1150DC0D9150A00D8170380D944028000361481116D
:2043C000440180000EE1841104FFBF31150380D93A882300170380D9C40080002667833054
:2043E0000E4183111703C0D904018000267C8238440180001EC4843844008000150B80D8A7
:204400001705C0D8172200D93A88071944008019150CC0D8150680D90EA48301170680D93E
:204420003A882130151100E0C40580002EC984114400C000040180003A8885100405001194
:204440003A880B184400C0182EFB3F31151140E13A8809E080790702150780D8151080E0D5
:204460008403800036F7001426F600881705C0D90E9AC301CC038038FA9004103AD12B389C
:204480007408C0000471D0183A8885180C04C0A81700401217010012267903187408800063
:2044A00004679010170880111709C0113A8809903A880B98151700DA151640DA40540C02A3
:2044C000171700DA171640DACC0340ADC40000043A8823103A882918261100A87408C005F1
:2044E0000467D0BD3A8805483A8807404C0080A93A8809107AD02BA83A880B182604003000
:20450000170080B91701C0B944000084C0160D020402C0BD1EF53FA83A8813103A881118C0
:204520003A880D483A880F403A8809883A880BA040540C02150F80D81510C0D8170EC0D8FB
:2045400026060018170F00D9171040D93A880D0034FCCF0180070D02160B04103A880980F3
:2045600040350E02170F80D91710C0D93A8809103A880B18C0160D023A880D003407D001F7
:204580003A8809103A880B1880C90B023A882110170680D834307F043A88631C2618031024
:2045A0001705C0D8170600DB1513C0D8170B00D9268F0320C4FFBF60FA9004107408C00000
:2045C0000471D0183A888518170080111701C011170780D83A88090034F84F01151600DBCB
:2045E0004400C01540540C023A880D803A880F883A8809103A880B18809D0D02171040D92C
:20460000170F00D93A882B101512C0D8402D0E023A8809103A88291040350E02170F00D908
:20462000171040D93A880D103A880F18809D0D023A8823181707C0D8171240D9040C00A29F
:204640003A8821100500001A3A880D803A880F883A8809A83A882940C0F90C02161D840084
:204660003A880D803A880F883A88090034FC4F01809D0D02171240D93A880D103A880F1811
:204680003A8809A8C0F90C02171600DB160E8400440080000E6B0013170700D9150F80DD68
:2046A0001510C0DC3A8819231712C0DC3A882D60151280DC3A8825B806090000809D0D02CA
:2046C0003A880DA83A880F983A8809103A880B1880070D0216E803103A8825B826E983BDA5
:2046E0003A8809A83A880B983A880D003409D001C0160D023A880D003409D0013A880980F8
:204700003A880B883A882B103A882718C0160D023A880B183A8809103A8821183A882310B1
:20472000402D0E023A8809103A88291040350E023A8809883A880B803A880D103A880F1839
:20474000809D0D02040C00A53A880DA83A880F983A8809103A880B18050000953A8821104B
:204760003A88231880070D024400C0BD3A880D803A880F883A88090034FC4F010ECF3F10C6
:204780001713C0D81505C0D8170940D93A8809E000840702170500D9172380D91725C0D9D7
:2047A000050000B8440080201500803026AA02381500C03D170780D806793E00340480008C
:2047C000C4FFBF103A70A2881E853E88740880000452901006843E000402C01006873E00AF
:2047E00034044001C4FF7F293A704A993A88099044003F8434FC4F29170280DD151100D8CA
:2048000006A53E00740880000449901006643E00151100E03A880B003A8809E0807907029E
:20482000C4FFBF014400C001150780D8150C80D9151080E0150300D8150BC0D9150680D960
:20484000152200D8170180D816890010170500D98403C00016860019FA9004207408C0004F
:20486000172280D90471D0183A8885181700001417014014166301303A880D803A880F8801
:204880003A8809903A880B9840540C023A880B183A880910402D0E023A8809103A882B10A1
:2048A00040350E023A880D803A880F883A8809103A880B18C0160D023A880D103A880F185E
:2048C0003A8809903A880B98809D0D021707C0D93A880910040C80A8050080384400C03D24
:2048E0001706C0D9440080013A880B183A880520263880393A880D003409D001C0160D0298
:204900003A880D003A880F003A8809103A880B183A8825103A88271840F10C02269A3F10F1
:204920001706C0D91707C0D83A8829B8C4FFBF383A88AD18060A0000C0160D023A880D0063
:204940003A880F003A8809103A880B183A8825103A8827183A8829B840F10C02268A3F10ED
:204960003A880D803A880F883A8809903A880B9840540C023A880B183A880910402D0E02F0
:204980003A8809103A882B1040350E023A880D803A880F883A8809103A880B18C0160D026D
:2049A0003A880D103A880F183A8809903A880B98809D0D02040C00AA050000A23A880D0013
:2049C0003409D0013A8809103A880B184400C0A51ED93FB53A880D103A880F183A880910D2
:2049E0003A880B1880C90B023A880D103A880F183A8809803A880B883A8827103A8825181C
:204A000080070D02160800103A880D983A880F903A8809803A880B8840F10C021E5A3F1064
:204A20004C0040AD26583FA8C3FF3FBDC4FFBFB83A880710440E4001170780D906050000F2
:204A4000C4FFFF18264782110300001D3A882F10C4FFBF10CC3F00A11C20002104E03F217C
:204A600026F77F21440000A20500001206463F00170B00D926C80020170380D94400C00071
:204A80000EF98019170680D8170AC0D8C4FF7F1516F3411D3AC86B1D1706C0D916AA023850
:204AA000170800DD170680D81708C0D8440040013A8809E03A8887181508C0D83A88ADB069
:204AC000C0BC07023A882310260800A00E0780053A8805A016B900B5170800D93AC8A9A0C6
:204AE0003AC8ADB03AC88920150800D9170A80D90E818101170BC0D926B3003826B200A8DF
:204B00003A880B883A880DA83A8809E040E90702170980D93A880B103A8809E03A882310F6
:204B200080C007023A882110170A80D8170940D93A8809E03AC84515150A80D8008407027C
:204B4000170AC0D81E9F00184400C0053A8809E03A880BB8C0BC0702170D00D93A882B100F
:204B600026CE00203A880D203A880B103A8809E040E90702170380D93A882B100E8181B93F
:204B80003A882700170480A80408C005040180103A8885103A8885103A8885A817000011BE
:204BA00040AB07023AC885B83A888515CC07801026B300100408C0003AC8871804010001A7
:204BC0000ECDC2200407C0003AC885181708C0D83A88A9A03A88ADB03A8887181508C0D8B7
:204BE000170880D90E0480013A880B803A8809E040FD07023A8821100E0580053A880BA86C
:204C00003A880DB03A8809E040FD07023A882B10170EC0D91E210138170680D90E388101B3
:204C2000170BC0D81EAB0018170780DC1706C0DC3A88299006020000808607023A88211021
:204C40003A880BA83A88098080EB0302040C801005008090440080943AC807953A880F00A8
:204C6000840280013A880B803A8809E016F2FF1C3A881110170680D80E378200170700D9FC
:204C80003A8825003A88AF20440080013A880B803A8809E0151700DA40FD07023A880BA81E
:204CA0003A880910150980D8C0110802171700DA0E808100C3FF3FB9C4FFBFB83A880710E4
:204CC000440E80011707C0D906050000C4FFFF182623C111030000193A882F10C4FFBF109B
:204CE000CC3F40211C20402904E07F2926F7BF2944000021050000113A880BA83A8809E077
:204D00000084070226A03E8826040090260340943A880B903A8809E0008407023A880B88D9
:204D20003A8809E00084070206973E0044008001150E80D906963D00170880D81705C0D81B
:204D4000150D00D83AC8C5103AC8C900150880D8150A00D906973D003AC8AD05150880DD42
:204D60003A882D00068E3D00170500D940350E023A880D103A880F183A8809A03A880B8871
:204D800040F10C0226713D101705C0D9C4FFFF391505C0D9066D3D00170A40DD170800DDA3
:204DA0003A88230006483F003AC8E3103A98489406323D00150E00D806753D003A8805B03F
:204DC00006453F00150900DC170A80D9170940D93A8809E040E907023A882110065A3F002D
:204DE0004400C001150BC0D9172280D80E2881003A880D103A882110150C80D8150680D8EF
:204E000006883D00170680D8169BBE001E0F01103A880B883A880D003405D0013A8809802C
:204E2000C0160D023A880D903A880F983A8809103A880B18C0F90C023A882B003A8823006C
:204E400016BF0010172280D91707C0DD3A308C01150580D93A880BA83A8809E00084070209
:204E600026493E8806AD3F001711C0D926BC0138C40C8110170A40DD170800DD060A3F0045
:204E800004078000170800D93A88A9A03A88ADB03A888920150800D906513F001703C0D8BC
:204EA0000EFCC1B83A8827003A8805B8063E3F003A880B883A8809E03A880F0084028001AC
:204EC00080860702170C00D93A8823100E040201150600D90E0500053A880B883A880DA0ED
:204EE0003A8809E040FD07023A8823101E2401983A882988170600D91707C0DC4C0080946E
:204F0000C4FFBF203A888598150480D8150680DC3A880BA83A88098080EB03023A880B88A3
:204F20003A8809803A882F10C01108023A880BA83A880DA03A8809E03A882D10C0170802DB
:204F40003A88071017038010040C80BC3A880B181E4E00103A8809801516C0D8C011080238
:204F60001716C0D83A8809E0151680D83A880B1800840702171680D81E040010170380D9A2
:204F80001E0200301706C0D826370018162000B01E0400B0170300D91E0200201706C0D8F7
:204FA000261B0018160781001704C0D84400809D0500809C3A882FB02606C1983A880B8052
:204FC0003A880F00840280013A8809E0808607023A8821103A880F00840280013A880B881F
:204FE0003A8809E02625008D808607023A880BA03A880F00840280013A8809E03A8823103A
:20500000808607023A8829103A8827B006C03F003A8811900E0E80003A880B8044008001D7
:205020003A8809E0151700DA40FD07023A880BA83A8809103A882110C0110802171700DA53
:205040000E968100440E800026708140440C00BA3A8825884400C09D0500009A3A8823A0C4
:20506000150900DC06243F00440E80003A8811902666819016F5BF0506F53F0080860702E3
:205080003A8823103A88291006DF3F003A8809E0008407024400800006BC3F003A880BA88A
:2050A0003A880980C01108020EDB3E103A880B803A880F00840280013A8809E080860702B4
:2050C0003A882110170580D8170BC0D8C4FFBF10150580D81E763F18170C00D90E73010141
:2050E000150600D906D03E00840080001E868130150B00D8063C3F00170900DC06923E0004
:205100001703C0D9840080000EC5FE11170600D91E3C01203A880BA83A880F004401800179
:205120003A8809E0808607023A880B103A8809803A882B10C0110802150900DC0E41BF00AD
:205140001707C0D9440C800005008038170580D84400C03D44008010150580D8063D3F008E
:20516000170580D91707C0D9440C800044008031150580D90500803806DF3E00150B00D8F3
:20518000069F3C001E7E3E9034048000C4FFBF103A7084981EEA00102CFCDF9C26E8009853
:2051A0001708C0D9440080B54400C0044400C0391508C0D9170D80D81E723E1044008000A5
:2051C00006793E003A88098040350E02170F80D91710C0D93A8809103A880B18C0160D025E
:2051E0003A880D003407D0013A8809103A880B1880C90B0234307F043A8821103A88631CA3
:20520000170F00D9171040D93A880D003405D001809D0D023A880D803A880F883A880910C7
:205220003A880B183A882B103A882918C0F90C02166C80003C00E0893A880D803A8809A859
:205240003A880BA080070D020E7E3D103A882B003A88230006FB3E00170780D806D03B00DA
:20526000170A00D9170D80D9150A40DD3AC805A93A888D30150D80D93A882B0006063E009A
:205280003A8823903A8829988400000406923C0044000004150C00DC150600DC152200DC6B
:2052A000151100E03A880B0006693C003A88213006FB3F001E0200104C0000421E7D3E4046
:2052C000040C0001060100003A882F10C4FFBFB80700C01026FC3F1906873E00170580D8EB
:2052E0003AC8A30026A40088CC038088FA9004107408C0000471D0183A88851817008011A2
:205300001701C0113A8809903A880B983AD12388C0160D02150F80D81510C0D826E800887A
:2053200074080005046710A5840000044C0080893A8809107AD023883A880B1826040030E0
:20534000170080A11701C0A144000084C0160D02040200A51EF53F88150F80D81510C0D831
:2053600006763C00040CC0000500C0101705C0D8C3FF3FBD4400C0181505C0D806B93D0094
:20538000170140893A8809E080790702170480890403408904030011840080313A888D31BE
:2053A0003A888D313A882710C03C0702440080013A880B983A8809E040FD07023A88291059
:2053C00006CC3E00440E80002690809044000092061F3F003A8811903A8825883A8823A094
:2053E00006293E003A882B003A88230006543F00C4FFBF61FA9004307408C0000471D0189B
:205400003A8885181700001117014011170780D83A880F88151280D93A880D80151600DBF8
:205420004400C015C0160D02171040D9170F00D91515C0D8151480D8402D0E023A88091094
:205440003A88211040350E02170F00D9171040D93A880D103A880F18809D0D023A8829189E
:205460001707C0D8040C00843A8823100500001C171600DB44008000262280601707C0D921
:205480003A8805883A882BB83A88193B3A8823603A8807A0150F80DC3A880D003409D001F7
:2054A0003A8809103A880B18C0160D023A880B183A8809103A8829183A882510402D0E0210
:2054C0003A8809103A88211040350E023A880D103A880F183A8809903A880BA0040C008455
:2054E000809D0D02440040ADC5FF3FAC1EEA7FAC3A882310171280D8170F80DC3A88291872
:205500003A88AFB8171400D9171540D93A880D0034F8CF0180C90B023A880D883A880FA030
:205520003A8809103A880B1880070D020E3E0010171300D9C3FF3FBD150500D9063B3D0087
:205540003A882700061B3F00170880D83AC8E9113A88050006543D004400800006C73D0063
:205560001702C0D8840D8000170A40DD3AC8C510170800DD064C3D00150F80DC1510C0DC88
:205580008400000406ED3B00170600D9260D3F20170C80D90EABBC01171040D9170F00D99C
:2055A0003A880D003409D001C0160D0244000081150F80D81510C0D840350E02170F80D927
:2055C0001710C0D93A8809103A880B18C0160D023407D0013A880D003A8809103A880B18CB
:2055E00080C90B021705C0D934307F043A882110C4FFFF391513C0D93A88631C170C00DBCB
:2056000006EA3B00150900DC060E3E00440E00013A8825884400C09D050000993A8823A08D
:20562000150900DC06A43D00171480D91715C0D93A88090034F84F01809D0D023A880D8876
:205640003A880FA03A8809103A880B18C0F90C020E7CBC00040C0001060100003A882F10F3
:20566000C4FFBFB80700C01026FC3F19171380D9150580D906443C00171380D9150580D92D
:2056800006EA3C00170F80DD1710C0DC171280DC066C3C001E033E9006BB3E001E6C3E109F
:2056A0004C008040266A3E1006663E001703C0D8840080001629C010170C00D906883E00C9
:2056C00084000004069D3B00171300D9150500D906D63C00171380D8150580D8062A3C00F6
:2056E000170380D98400800016158011170CC0D91506C0D906F73D0026393D19040FC00045
:205700003AC8851806DF3D003A8809E0151100E03A880B0080790702150780D81707C0D81E
:20572000C4FFBF0044000001150C80D81510C0E0150B00D9150680D8152200D806413C0066
:20574000170CC0D81506C0D806703E004400400406203B003A880B00063D3B00170C80D878
:20576000150680D806693E000B03802804FBFFDE1503C0DC150140DC1504C0DF150280DC66
:20578000150000DC0C02C0103A8823283A8827201E3100181701C028140082100D0380285F
:2057A0000E4BC000170A008A262300401700009C0C00C410150000982648001817148089A2
:2057C0000C01C010260600181701C088170C80883AC8CD3026020010170F80883AC88D30F9
:2057E000170740893A880F003A8809983AE83E40C4FFFF002644C0100B03C08817040089F8
:2058000015010088CCFF7D190D034089150000890C00C4181E2C0018170C40891500009C2B
:205820002605002804108088260280283A88099840EE0502150C00883A8805001704C0DF67
:205840001703C0DC170280DC170140DC170000DC0405C0DE3A2800F81704802C26F63F9043
:205860001700002CCC0080101500802C3AC8A1841E13001017058028150280881603000460
:2058800006ED3F003A88A5900EEB3F0417098088170740893A880F803A880D903A88099881
:2058A0003AE83E103AC8A18016F6BF000B03C088C4FFBF001410C0180D03C08806DF3F003A
:2058C0003A88050006EC3F001514808806D23F00170FC02816B3FF0006D73F0017074089AF
:2058E0003A880D004400C0013A8809983AE83E403A880D10C4FFBF00261480300B03808870
:20590000170A008A06AE3F001700C09826BA3F1844070001260600198405000126040019E5
:205920000B03C0881410C0180D03C08806C33F000B0380881704C08815010088CCFFBD1006
:205940000D0380881500C08806B33F001700809826EA3F104407C0002602C0108405C00000
:205960001E03C0101500009C3A88050006B33F000B03C0883A8805301410C0180D03C08825
:2059800006AE3F0004FDFFDE150100DC1502C0DF3A88212026020020170E8020260C00103C
:2059A0000F0380281E0500103A8805001702C0DF170100DC0403C0DE3A2800F83A8809803D
:2059C0001702C0DF170100DC0403C0DE81760502150040D900D70502170040D906F03F0007
:2059E000260500207410800004FAA6103A880B2017000011419805027410800004F9A610F8
:205A0000170000113408400104615629017806023A8805003A2800F87408400104476A29C0
:205A20000178060204F7FFDE3408C0001508C0DF1507C0DD150680DD150540DD150400DDF7
:205A40001503C0DC150280DC150140DC150000DC0486D61817010024150FC02004BB8020E5
:205A6000C400C00015B9C02015BA802015B800200402C005040180003A8825203A880DB8BA
:205A8000041700813A880B001500008015010080150200800D038080151900808D0300800D
:205AA000150400801505008015060080006707027408800517024094740840057408000578
:205AC0007408C004049FA3B504B663AD04D523A504ECE39C1508808515094085150A008508
:205AE000150BC08415070084840280000D038088440080003A880DB8041700893A880B00C8
:205B0000150000881501008815020088151900888D03808815040088150500881506008877
:205B20000067070217030094840480001507408C1508808D1509408D150A008D150BC08C2A
:205B40000D03808084008000150000801501008015020080151900808D0380801504008098
:205B600015050080150600803A880DB83A880B00041700810067070244008000150700842C
:205B80001508808515094085150A0085150BC084150E80901708C0DF1707C0DD170680DDD2
:205BA000170540DD170400DD1703C0DC170280DC170140DC170000DC0409C0DE3A2800F85D
:205BC0003A8805003A2800F804FCFFDE150280DC3A882528150000DC041A40013A882120F2
:205BE000C4FF3F911503C0DF150140DC007B01023A880980041D40113A882310C0AD060284
:205C00003A8821102607001004030011150000101501801415020011041A80893A880B0051
:205C2000006707023A8805801703C0DF170280DC170140DC170000DC0404C0DE3A2800F858
:205C400004FBFFDE150000DC7410000404F926841503C0DC3A882720170000811504C0DF3B
:205C6000150280DC170E8020150140DC1E02001040A205021700008104B88024C4FF7F0463
:205C80001701009117020094C4FF3F21160A00200F038080260C0010041DC080060200008E
:205CA0000FE6BF1826080010C4FF3F2104FD3F1C041AC0181EFA7F2417008090261D001030
:205CC0003A88251006EE3F00C4FFBF008D038080440080000D038080151900801500008071
:205CE0001502008015010080150400801505008015060080040280013A880B0004170081B9
:205D0000006707023A880580150C0080150D008015110080151200801704C0DF1703C0DCCC
:205D2000170280DC170140DC170000DC0405C0DE3A2800F8040140013A88099880BC0502DA
:205D4000150080901EDE3F1004038000150080983A88050006F03F007410800004F9A6106C
:205D6000170000117408400104476A2901780602170E8020260100103A2800F841A205029F
:205D80003A2800F83A2800F83A2800F83A2800F87410800004FAA61017000011340840013E
:205DA00004F05629C16B06027410800004FAA610170000113408400104845629C16B0602A4
:205DC00004FBFFDE1503C0DC7410C004150280DC150140DC150000DC1504C0DF3A88212892
:205DE0000427E19C3A88252040A70E02170280981701401404FFBF003A70A2883AC8218C1B
:205E0000C4FB03843AD32080C4FF8300C4FF3F843A9320800E0600143A880B003A88099006
:205E200080E208021702C0983A88471C260AC0103A88099080A90E023A8805001704C0DF4B
:205E40001703C0DC170280DC170140DC170000DC0405C0DE3A2800F83AC80B043A88099083
:205E600080E20802C4FFFF00260DC0107410C000041DE71817008018170200993AC8238C7B
:205E80005400408C3AC82114150140243A8809901500001C80A90E024400800006E73F007C
:205EA0003A880B003A88099080E2080217020099C40340013AC807110EDDFF2874104001A3
:205EC00004FC6629170040295400C0181501C0207410C0003AC84511041DE7181500801828
:205EE00006D33F002641002804FDFFDE150140DC150000DC3A8823203A8821281502C0DF34
:205F000040A70E0217FFFF8184FFBF007410000104FEBF813A708438042721213A888B309B
:205F20001701402A1702002204FFFF003A70C6482657002A1501C0284C00C0391E090038A1
:205F400017FE3F82040240223AC80D321702C0313A8805122665403A170300321503003A3C
:205F60001502C0413A88CF281701C0394C00C039263A00385400C0101501C0303A888730BF
:205F800015008018C47FC00036198018FAD004104400C001170140214400C0103A88C71859
:205FA000BAD005103A88C7183A88C7183A8807193A9884381700C01904FE3F1A3AB0441106
:205FC000150300321502C0311501802015008019150380393A8809881702C0DF170140DCFB
:205FE000170000DC0403C0DE81A90E023A2800F87AD20A100401C000364A4019BAD10A10CC
:20600000440EC0283A88C718040E40293A88C7183A88C7183A8809191700C0207410C001C8
:2060200004FE3F210427E1392644C02004FFFF01170140193A70CA292E0240111702C018EC
:206040001EFBFF2017030019150300311502C030150280211503801906DE3F001702C029F7
:206060003A88C5107410C0000429E118263BC0381703002A540040113A8887301503003A12
:206080001502C041150140311500801806BD3F004C00C0393A88C5101E07003817FEFF81E4
:2060A0003AC8CD311703C030170240313A88C5111503C028150240195400C0101501C0301A
:2060C0007410C00004FDE6181700C0181502802136C0FF10741080000414A7101700401196
:2060E0003A88098800DC050206BA3F003A88C928170100214C0000211E3900201702C02999
:20610000170300293A8885185400C010150300391502C0211501C0303A888D301500803026
:2061200006AC3F000405C000361540190417C0283A88C718C416402906B43F00BAD00B2864
:206140004400C000170180383A984A193A8807203AB084281501803806BB3F00150580212E
:20616000150480215400C0101503C0311502C0311501C0303A888D301500803006953F000C
:206180000415C000360540193AD30A10C41BC0283A88C718841B4029069C3F000455C00001
:2061A00036054019FAD30A10041EC0283A88C718C41D402906953F000455C10036054019E7
:2061C000BAD40A10441FC0283A88C718041F4029068E3F00843FC000841F4001068B3F0095
:2061E0005400C0101501C0303A888D301500803006783F0017028030266700100B03C02818
:2062000004F4FFDE150740DD150600DD150200DC150BC0DF150A00DF1509C0DD150880DD93
:206220001505C0DC150480DC150340DC0C0280183A8821283A882B203A88293026270010C9
:2062400017048028262500108C008018170040A4262A00103400A0053A8827003A882500F8
:206260000400BFB53A880D983A8809A8264600903A880F902E0280B43400E0010400FF39BA
:2062800017098080170740813AE83E100E5A80001702C0A03A88A7983AC8A5903AC8851857
:2062A000150280A01EEF3F103A880500170BC0DF170A00DF1709C0DD170880DD170740DD4F
:2062C000170600DD1705C0DC170480DC170340DC170200DC040CC0DE3A2800F83A880B8015
:2062E0003A8809A840D603021EEE00100B03C080170040A48C0080181ED63F104C00801860
:206300001E4200103A8839003A882500261A00900C8080181702C084262100103A882F98FA
:206320003696C0940C2081181EA10010170000813A880DB83A880BE0405107021702C080EA
:20634000170000813A8805903AC8E71C3A88CF251502C0841500C0811702C0A03A88B9E00E
:206360003AC8A5903AC8A7181502C0A426CE3F980B03C0801EE63F901700008F1701808CF4
:206380000402408C06E13F001700C08C1701808C0402408C06B33F003A8805003A2800F893
:2063A0001700008117048080365A00111705C0853658C0953400A000C4FFBF103A88099084
:2063C0002E0180143A8809103A880BB880A600023A880BB83A880910007B010217074081B5
:2063E0001709C0803A880F103A880DE03A8809A83AE83E1816D8BF000B0380801410801053
:206400000D038080C4FFBF0006A83F003A8827003A8811003A8839003A882500261F00908A
:20642000265A00403A882D982E01C0943A882D9017000081170480803A882FB01705C08162
:206440002E0300111702C0803A88C7381618801D163EC0B117098080170740813A880DE0A2
:20646000150100DA3A8809A83AE83E103A882F10170100DA0EE0BF003AC8E79D261F009846
:20648000170280A03A88F9E53AC8E5953AC8EF151502C0A526843FB81EE13F901700008F10
:2064A0001701808C3A8811000402408C06DB3F003A880D183A880BE0150100DA1500C0D8C2
:2064C000405107021700C0D8170080803A880B803A8809A83A88C510150080801500C0D843
:2064E000409805021700C0D8170100DA1EC23F103A882F183AC8E79D1EE13F983A880B803B
:206500003A8809A8409805021EBB3F103A88110006DB3F002E01C0943A8827903A880D98AB
:206520003A880BE040510702170280801700C0803AC8C5143A88C71C150280801500C080B8
:20654000264300103A88059806833F003A880DB03A880BE0150100DA4051070217028080CC
:206560001700C080170100DA3AC885153A88AD1D150280801500808506BF3F0017000081DD
:206580003A8827903A882F9006693F003A880D90840240013A8809E0802E0702263E001057
:2065A000440080103AC8271744000002069D3F0017058080170440811700C0813A88A710D6
:2065C0003A888598FAD726103AC86D39440000B13A8885987AD027103A8885243A880D9806
:2065E0002E0280983A8827103A880D100C00C118261C00183A880B303A8809A8C0AD060257
:206600003A882F1026290010170440813A880DB03A880910C03C07020B038080C4DFFE0030
:206620003A70C410142080100D0380803A8889BD3AC88F9D1504C0851505C0841500008180
:206640003A8827901502C0813A882F9006383F003A880B803A8809A84098050226B93F109E
:2066600006653F003A8809A8008508023A882F101EEE3F10170440813A8809A840EE05028E
:206680000B038080C4DFFF003A7084180403C0001500C0A806593F004400C0944400000244
:2066A00006603F00C4FFBF0006003F0004038000150080A80B03808006503F0004F7FFDE2F
:2066C000150400DD1508C0DF1507C0DD150680DD150540DD1503C0DC150280DC150140DC47
:2066E000150000DC04B80025262300A03A882B283A882F0044008005C4FFFF04170140A44E
:20670000170280A4C4FF7F8C160D008804030094840380940B008080C4FF7F8C04FD3F81F3
:206720002E0480B00F0080902602C0143AE83EA83AB0AEB8041A0084041A80941EF5FF8C12
:20674000170000A51EED3FA03A8805B81708C0DF1707C0DD170680DD170540DD170400DDF0
:206760001703C0DC170280DC170140DC170000DC0409C0DE3A2800F83A882F0006F23F009A
:2067800004F7FFDE150400DD1508C0DF1507C0DD150680DD150540DD1503C0DC150280DCE0
:2067A000150140DC150000DC04B80025262300A03A882B283A8827203A882F004400800514
:2067C000C4FFBF04170140A4170200A4C4FF7F8C160C0088040300840B008080C4FF7F8C9E
:2067E00004FD7F812E0580B08F0080803A880998260280143AE83EA83AB0AEB8041A00848D
:206800001EF5BF8C170000A51EEE3FA03A8805B81708C0DF1707C0DD170680DD170540DDC8
:20682000170400DD1703C0DC170280DC170140DC170000DC0409C0DE3A2800F83A882F0018
:2068400006F23F00261B00307408400104FEFFDE045750293A880930150000DC1501C0DF7F
:206860003A88213080FB08021E06001074088000045690101701C0DF170000DC0402C0DE08
:206880003A2800F874084001045650293A88098080FB080226F53F10740840010441502959
:2068A0003A88098080FB080226F03F103A88050006F03F0074088000045690103A2800F857
:2068C000741080000411A1103A2800F87410800004FBA610170080103A2800F874108000D6
:2068E0000409A1103A2800F83A8805003A2800F8741080000419A1103A2800F8741080002F
:2069000004FAA6103A880D283A880B201700001141840602741080000419A1103A2800F8BE
